{
  "contractName": "RegistrationLog",
  "abi": [
    {
      "anonymous": false,
      "inputs": [
        {
          "indexed": true,
          "internalType": "address",
          "name": "user",
          "type": "address"
        },
        {
          "indexed": false,
          "internalType": "string",
          "name": "message",
          "type": "string"
        }
      ],
      "name": "UserRegistered",
      "type": "event"
    },
    {
      "inputs": [],
      "name": "registerUser",
      "outputs": [],
      "stateMutability": "nonpayable",
      "type": "function"
    }
  ],
  "bytecode": "0x608060405234801561001057600080fd5b5061012e806100206000396000f3fe6080604052348015600f57600080fd5b506004361060285760003560e01c80634d3820eb14602d575b600080fd5b60336035565b005b3373ffffffffffffffffffffffffffffffffffffffff167f48cac28ad4dc618e15f4c2dd5e97751182f166de97b25618318b2112aa951a2f60405160779060da565b60405180910390a2565b600082825260208201905092915050565b7f557365722072656769737465726564207375636365737366756c6c7900000000600082015250565b600060c6601c836081565b915060cf826092565b602082019050919050565b6000602082019050818103600083015260f18160bb565b905091905056fea26469706673582212205f1d3e2c97d2281e40e1bc0f3e26ae7f0802dd5f854f73763cca563c1d52521064736f6c634300080d0033",
  "immutableReferences": {},
  "source": "// SPDX-License-Identifier: MIT\r\npragma solidity ^0.8.0;\r\n\r\ncontract RegistrationLog {\r\n    event UserRegistered(address indexed user, string message);\r\n\r\n    function registerUser() public {\r\n        emit UserRegistered(msg.sender, \"User registered successfully\");\r\n    }\r\n}\r\n\r\n",
  "sourcePath": "D:\\biocryptor - Copy\\contracts\\CPABERegistry.sol",
  "compiler": {
    "name": "solc",
    "version": "0.8.13+commit.abaa5c0e.Emscripten.clang"
  },
  "schemaVersion": "3.4.16",
  "updatedAt": "2025-04-28T12:41:14.968Z",
  "networkType": "ethereum",
  "devdoc": {
    "kind": "dev",
    "methods": {},
    "version": 1
  },
  "userdoc": {
    "kind": "user",
    "methods": {},
    "version": 1
  }
}